{
  "_format": "hh-sol-artifact-1",
  "contractName": "DomainService",
  "sourceName": "contracts/DomainMinter.sol",
  "abi": [
    {
      "inputs": [
        {
          "internalType": "string",
          "name": "_tld",
          "type": "string"
        }
      ],
      "stateMutability": "payable",
      "type": "constructor"
    },
    {
      "inputs": [],
      "name": "AlreadyRegistered",
      "type": "error"
    },
    {
      "inputs": [
        {
          "internalType": "string",
          "name": "name",
          "type": "string"
        }
      ],
      "name": "InvalidName",
      "type": "error"
    },
    {
      "inputs": [],
      "name": "Unauthorized",
      "type": "error"
    },
    {
      "anonymous": false,
      "inputs": [
        {
          "indexed": true,
          "internalType": "address",
          "name": "owner",
          "type": "address"
        },
        {
          "indexed": true,
          "internalType": "address",
          "name": "approved",
          "type": "address"
        },
        {
          "indexed": true,
          "internalType": "uint256",
          "name": "tokenId",
          "type": "uint256"
        }
      ],
      "name": "Approval",
      "type": "event"
    },
    {
      "anonymous": false,
      "inputs": [
        {
          "indexed": true,
          "internalType": "address",
          "name": "owner",
          "type": "address"
        },
        {
          "indexed": true,
          "internalType": "address",
          "name": "operator",
          "type": "address"
        },
        {
          "indexed": false,
          "internalType": "bool",
          "name": "approved",
          "type": "bool"
        }
      ],
      "name": "ApprovalForAll",
      "type": "event"
    },
    {
      "anonymous": false,
      "inputs": [
        {
          "indexed": true,
          "internalType": "address",
          "name": "from",
          "type": "address"
        },
        {
          "indexed": true,
          "internalType": "address",
          "name": "to",
          "type": "address"
        },
        {
          "indexed": true,
          "internalType": "uint256",
          "name": "tokenId",
          "type": "uint256"
        }
      ],
      "name": "Transfer",
      "type": "event"
    },
    {
      "inputs": [
        {
          "internalType": "address",
          "name": "to",
          "type": "address"
        },
        {
          "internalType": "uint256",
          "name": "tokenId",
          "type": "uint256"
        }
      ],
      "name": "approve",
      "outputs": [],
      "stateMutability": "nonpayable",
      "type": "function"
    },
    {
      "inputs": [
        {
          "internalType": "address",
          "name": "owner",
          "type": "address"
        }
      ],
      "name": "balanceOf",
      "outputs": [
        {
          "internalType": "uint256",
          "name": "",
          "type": "uint256"
        }
      ],
      "stateMutability": "view",
      "type": "function"
    },
    {
      "inputs": [
        {
          "internalType": "string",
          "name": "",
          "type": "string"
        }
      ],
      "name": "bio",
      "outputs": [
        {
          "internalType": "string",
          "name": "",
          "type": "string"
        }
      ],
      "stateMutability": "view",
      "type": "function"
    },
    {
      "inputs": [
        {
          "internalType": "string",
          "name": "",
          "type": "string"
        }
      ],
      "name": "domains",
      "outputs": [
        {
          "internalType": "address",
          "name": "",
          "type": "address"
        }
      ],
      "stateMutability": "view",
      "type": "function"
    },
    {
      "inputs": [
        {
          "internalType": "string",
          "name": "",
          "type": "string"
        }
      ],
      "name": "emailLink",
      "outputs": [
        {
          "internalType": "string",
          "name": "",
          "type": "string"
        }
      ],
      "stateMutability": "view",
      "type": "function"
    },
    {
      "inputs": [
        {
          "internalType": "string",
          "name": "_name",
          "type": "string"
        }
      ],
      "name": "getAddress",
      "outputs": [
        {
          "internalType": "address",
          "name": "",
          "type": "address"
        }
      ],
      "stateMutability": "view",
      "type": "function"
    },
    {
      "inputs": [],
      "name": "getAllNames",
      "outputs": [
        {
          "internalType": "string[]",
          "name": "",
          "type": "string[]"
        }
      ],
      "stateMutability": "view",
      "type": "function"
    },
    {
      "inputs": [
        {
          "internalType": "uint256",
          "name": "tokenId",
          "type": "uint256"
        }
      ],
      "name": "getApproved",
      "outputs": [
        {
          "internalType": "address",
          "name": "",
          "type": "address"
        }
      ],
      "stateMutability": "view",
      "type": "function"
    },
    {
      "inputs": [
        {
          "internalType": "string",
          "name": "_name",
          "type": "string"
        }
      ],
      "name": "getLength",
      "outputs": [
        {
          "internalType": "uint256",
          "name": "",
          "type": "uint256"
        }
      ],
      "stateMutability": "pure",
      "type": "function"
    },
    {
      "inputs": [
        {
          "internalType": "string",
          "name": "_name",
          "type": "string"
        }
      ],
      "name": "getPrice",
      "outputs": [
        {
          "internalType": "uint256",
          "name": "",
          "type": "uint256"
        }
      ],
      "stateMutability": "pure",
      "type": "function"
    },
    {
      "inputs": [
        {
          "internalType": "string",
          "name": "_name",
          "type": "string"
        }
      ],
      "name": "getRecords",
      "outputs": [
        {
          "internalType": "string",
          "name": "",
          "type": "string"
        },
        {
          "internalType": "string",
          "name": "",
          "type": "string"
        },
        {
          "internalType": "string",
          "name": "",
          "type": "string"
        },
        {
          "internalType": "string",
          "name": "",
          "type": "string"
        },
        {
          "internalType": "string",
          "name": "",
          "type": "string"
        },
        {
          "internalType": "string",
          "name": "",
          "type": "string"
        },
        {
          "internalType": "string",
          "name": "",
          "type": "string"
        }
      ],
      "stateMutability": "view",
      "type": "function"
    },
    {
      "inputs": [
        {
          "internalType": "string",
          "name": "",
          "type": "string"
        }
      ],
      "name": "githubLink",
      "outputs": [
        {
          "internalType": "string",
          "name": "",
          "type": "string"
        }
      ],
      "stateMutability": "view",
      "type": "function"
    },
    {
      "inputs": [
        {
          "internalType": "address",
          "name": "owner",
          "type": "address"
        },
        {
          "internalType": "address",
          "name": "operator",
          "type": "address"
        }
      ],
      "name": "isApprovedForAll",
      "outputs": [
        {
          "internalType": "bool",
          "name": "",
          "type": "bool"
        }
      ],
      "stateMutability": "view",
      "type": "function"
    },
    {
      "inputs": [],
      "name": "isOwner",
      "outputs": [
        {
          "internalType": "bool",
          "name": "",
          "type": "bool"
        }
      ],
      "stateMutability": "view",
      "type": "function"
    },
    {
      "inputs": [
        {
          "internalType": "string",
          "name": "_name",
          "type": "string"
        }
      ],
      "name": "isValid",
      "outputs": [
        {
          "internalType": "bool",
          "name": "",
          "type": "bool"
        }
      ],
      "stateMutability": "pure",
      "type": "function"
    },
    {
      "inputs": [
        {
          "internalType": "string",
          "name": "",
          "type": "string"
        }
      ],
      "name": "leetcodeLink",
      "outputs": [
        {
          "internalType": "string",
          "name": "",
          "type": "string"
        }
      ],
      "stateMutability": "view",
      "type": "function"
    },
    {
      "inputs": [
        {
          "internalType": "string",
          "name": "",
          "type": "string"
        }
      ],
      "name": "linkedInLink",
      "outputs": [
        {
          "internalType": "string",
          "name": "",
          "type": "string"
        }
      ],
      "stateMutability": "view",
      "type": "function"
    },
    {
      "inputs": [],
      "name": "name",
      "outputs": [
        {
          "internalType": "string",
          "name": "",
          "type": "string"
        }
      ],
      "stateMutability": "view",
      "type": "function"
    },
    {
      "inputs": [
        {
          "internalType": "uint256",
          "name": "",
          "type": "uint256"
        }
      ],
      "name": "names",
      "outputs": [
        {
          "internalType": "string",
          "name": "",
          "type": "string"
        }
      ],
      "stateMutability": "view",
      "type": "function"
    },
    {
      "inputs": [],
      "name": "owner",
      "outputs": [
        {
          "internalType": "address payable",
          "name": "",
          "type": "address"
        }
      ],
      "stateMutability": "view",
      "type": "function"
    },
    {
      "inputs": [
        {
          "internalType": "uint256",
          "name": "tokenId",
          "type": "uint256"
        }
      ],
      "name": "ownerOf",
      "outputs": [
        {
          "internalType": "address",
          "name": "",
          "type": "address"
        }
      ],
      "stateMutability": "view",
      "type": "function"
    },
    {
      "inputs": [
        {
          "internalType": "string",
          "name": "_name",
          "type": "string"
        }
      ],
      "name": "register",
      "outputs": [],
      "stateMutability": "payable",
      "type": "function"
    },
    {
      "inputs": [
        {
          "internalType": "address",
          "name": "from",
          "type": "address"
        },
        {
          "internalType": "address",
          "name": "to",
          "type": "address"
        },
        {
          "internalType": "uint256",
          "name": "tokenId",
          "type": "uint256"
        }
      ],
      "name": "safeTransferFrom",
      "outputs": [],
      "stateMutability": "nonpayable",
      "type": "function"
    },
    {
      "inputs": [
        {
          "internalType": "address",
          "name": "from",
          "type": "address"
        },
        {
          "internalType": "address",
          "name": "to",
          "type": "address"
        },
        {
          "internalType": "uint256",
          "name": "tokenId",
          "type": "uint256"
        },
        {
          "internalType": "bytes",
          "name": "_data",
          "type": "bytes"
        }
      ],
      "name": "safeTransferFrom",
      "outputs": [],
      "stateMutability": "nonpayable",
      "type": "function"
    },
    {
      "inputs": [
        {
          "internalType": "address",
          "name": "operator",
          "type": "address"
        },
        {
          "internalType": "bool",
          "name": "approved",
          "type": "bool"
        }
      ],
      "name": "setApprovalForAll",
      "outputs": [],
      "stateMutability": "nonpayable",
      "type": "function"
    },
    {
      "inputs": [
        {
          "internalType": "string",
          "name": "_name",
          "type": "string"
        },
        {
          "internalType": "string",
          "name": "_bio",
          "type": "string"
        },
        {
          "internalType": "string",
          "name": "_linkedIn",
          "type": "string"
        },
        {
          "internalType": "string",
          "name": "_twitter",
          "type": "string"
        },
        {
          "internalType": "string",
          "name": "_github",
          "type": "string"
        },
        {
          "internalType": "string",
          "name": "_website",
          "type": "string"
        },
        {
          "internalType": "string",
          "name": "_email",
          "type": "string"
        },
        {
          "internalType": "string",
          "name": "_leetcode",
          "type": "string"
        }
      ],
      "name": "setRecords",
      "outputs": [],
      "stateMutability": "nonpayable",
      "type": "function"
    },
    {
      "inputs": [
        {
          "internalType": "bytes4",
          "name": "interfaceId",
          "type": "bytes4"
        }
      ],
      "name": "supportsInterface",
      "outputs": [
        {
          "internalType": "bool",
          "name": "",
          "type": "bool"
        }
      ],
      "stateMutability": "view",
      "type": "function"
    },
    {
      "inputs": [],
      "name": "symbol",
      "outputs": [
        {
          "internalType": "string",
          "name": "",
          "type": "string"
        }
      ],
      "stateMutability": "view",
      "type": "function"
    },
    {
      "inputs": [],
      "name": "tld",
      "outputs": [
        {
          "internalType": "string",
          "name": "",
          "type": "string"
        }
      ],
      "stateMutability": "view",
      "type": "function"
    },
    {
      "inputs": [
        {
          "internalType": "uint256",
          "name": "tokenId",
          "type": "uint256"
        }
      ],
      "name": "tokenURI",
      "outputs": [
        {
          "internalType": "string",
          "name": "",
          "type": "string"
        }
      ],
      "stateMutability": "view",
      "type": "function"
    },
    {
      "inputs": [
        {
          "internalType": "address",
          "name": "from",
          "type": "address"
        },
        {
          "internalType": "address",
          "name": "to",
          "type": "address"
        },
        {
          "internalType": "uint256",
          "name": "tokenId",
          "type": "uint256"
        }
      ],
      "name": "transferFrom",
      "outputs": [],
      "stateMutability": "nonpayable",
      "type": "function"
    },
    {
      "inputs": [
        {
          "internalType": "string",
          "name": "",
          "type": "string"
        }
      ],
      "name": "twitterLink",
      "outputs": [
        {
          "internalType": "string",
          "name": "",
          "type": "string"
        }
      ],
      "stateMutability": "view",
      "type": "function"
    },
    {
      "inputs": [
        {
          "internalType": "string",
          "name": "",
          "type": "string"
        }
      ],
      "name": "websiteLink",
      "outputs": [
        {
          "internalType": "string",
          "name": "",
          "type": "string"
        }
      ],
      "stateMutability": "view",
      "type": "function"
    },
    {
      "inputs": [],
      "name": "withdraw",
      "outputs": [],
      "stateMutability": "nonpayable",
      "type": "function"
    }
  ],
  "bytecode": "0x61092060405261086b6080818152906200389160a03980516200002b91600991602090910190620001bc565b5060408051808201909152600d8082526c1e17ba32bc3a1f1e17b9bb339f60991b60209092019182526200006291600a91620001bc565b506040516200411e3803806200411e8339810160408190526200008591620002ab565b604080518082018252600d81526c446f6d61696e5365727669636560981b602080830191825283518085019094526003845262454e5360e81b908401528151919291620000d591600091620001bc565b508051620000eb906001906020840190620001bc565b5050600780546001600160a01b031916331790555060408051606081019091526022808252620001309190620040fc60208301396200014d60201b62001c121760201c565b80516200014590600b906020840190620001bc565b5050620003d5565b620001988160405160240162000164919062000363565b60408051601f198184030181529190526020810180516001600160e01b0390811663104c13eb60e21b179091526200019b16565b50565b80516a636f6e736f6c652e6c6f67602083016000808483855afa5050505050565b828054620001ca9062000398565b90600052602060002090601f016020900481019282620001ee576000855562000239565b82601f106200020957805160ff191683800117855562000239565b8280016001018555821562000239579182015b82811115620002395782518255916020019190600101906200021c565b50620002479291506200024b565b5090565b5b808211156200024757600081556001016200024c565b634e487b7160e01b600052604160045260246000fd5b60005b83811015620002955781810151838201526020016200027b565b83811115620002a5576000848401525b50505050565b600060208284031215620002be57600080fd5b81516001600160401b0380821115620002d657600080fd5b818401915084601f830112620002eb57600080fd5b81518181111562000300576200030062000262565b604051601f8201601f19908116603f011681019083821181831017156200032b576200032b62000262565b816040528281528760208487010111156200034557600080fd5b6200035883602083016020880162000278565b979650505050505050565b60208152600082518060208401526200038481604085016020870162000278565b601f01601f19169190910160400192915050565b600181811c90821680620003ad57607f821691505b60208210811415620003cf57634e487b7160e01b600052602260045260246000fd5b50919050565b6134ac80620003e56000396000f3fe6080604052600436106101f95760003560e01c8063716421f81161010d578063b88d4fde116100a0578063e985e9c51161006f578063e985e9c5146105f0578063f1dfaefb14610639578063f2c298be14610659578063fb825e5f1461066c578063fe63212a1461068e57600080fd5b8063b88d4fde14610570578063bf40fac114610590578063c87b56dd146105b0578063d16fc294146105d057600080fd5b80638f32d59b116100dc5780638f32d59b146104fb57806395d89b411461051b57806396dfab4414610530578063a22cb4651461055057600080fd5b8063716421f81461046857806373b77f761461048857806386e80b71146104a85780638da5cb5b146104db57600080fd5b80633809450611610190578063524f38891161015f578063524f3889146103ba5780636352211e146103e857806369637db8146104085780636981b5f41461042857806370a082311461044857600080fd5b806338094506146103455780633ccfd60b1461036557806342842e0e1461037a5780634622ab031461039a57600080fd5b80630d20a77c116101cc5780630d20a77c146102af57806323b872dd146102cf57806326449235146102ef5780632d5514321461033057600080fd5b806301ffc9a7146101fe57806306fdde0314610233578063081812fc14610255578063095ea7b31461028d575b600080fd5b34801561020a57600080fd5b5061021e610219366004612893565b6106ae565b60405190151581526020015b60405180910390f35b34801561023f57600080fd5b50610248610700565b60405161022a9190612908565b34801561026157600080fd5b5061027561027036600461291b565b610792565b6040516001600160a01b03909116815260200161022a565b34801561029957600080fd5b506102ad6102a8366004612950565b61081f565b005b3480156102bb57600080fd5b506102ad6102ca366004612a26565b610935565b3480156102db57600080fd5b506102ad6102ea366004612b66565b610b24565b3480156102fb57600080fd5b5061027561030a366004612ba2565b8051602081830181018051600c825292820191909301209152546001600160a01b031681565b34801561033c57600080fd5b50610248610b55565b34801561035157600080fd5b50610248610360366004612ba2565b610be3565b34801561037157600080fd5b506102ad610c07565b34801561038657600080fd5b506102ad610395366004612b66565b610cbc565b3480156103a657600080fd5b506102486103b536600461291b565b610cd7565b3480156103c657600080fd5b506103da6103d5366004612bd7565b610cf0565b60405190815260200161022a565b3480156103f457600080fd5b5061027561040336600461291b565b610d7a565b34801561041457600080fd5b50610248610423366004612ba2565b610df1565b34801561043457600080fd5b506103da610443366004612ba2565b610e15565b34801561045457600080fd5b506103da610463366004612c49565b610e2d565b34801561047457600080fd5b50610248610483366004612ba2565b610eb4565b34801561049457600080fd5b506102486104a3366004612ba2565b610ed8565b3480156104b457600080fd5b506104c86104c3366004612bd7565b610efc565b60405161022a9796959493929190612c64565b3480156104e757600080fd5b50600754610275906001600160a01b031681565b34801561050757600080fd5b506007546001600160a01b0316331461021e565b34801561052757600080fd5b506102486113d5565b34801561053c57600080fd5b5061024861054b366004612ba2565b6113e4565b34801561055c57600080fd5b506102ad61056b366004612cfb565b611408565b34801561057c57600080fd5b506102ad61058b366004612d37565b611413565b34801561059c57600080fd5b506102756105ab366004612bd7565b61144b565b3480156105bc57600080fd5b506102486105cb36600461291b565b611480565b3480156105dc57600080fd5b506102486105eb366004612ba2565b6115f7565b3480156105fc57600080fd5b5061021e61060b366004612db3565b6001600160a01b03918216600090815260056020908152604080832093909416825291909152205460ff1690565b34801561064557600080fd5b5061021e610654366004612ba2565b61161b565b6102ad610667366004612bd7565b61163e565b34801561067857600080fd5b50610681611a23565b60405161022a9190612de6565b34801561069a57600080fd5b506102486106a9366004612ba2565b611bee565b60006001600160e01b031982166380ac58cd60e01b14806106df57506001600160e01b03198216635b5e139f60e01b145b806106fa57506301ffc9a760e01b6001600160e01b03198316145b92915050565b60606000805461070f90612e48565b80601f016020809104026020016040519081016040528092919081815260200182805461073b90612e48565b80156107885780601f1061075d57610100808354040283529160200191610788565b820191906000526020600020905b81548152906001019060200180831161076b57829003601f168201915b5050505050905090565b600061079d82611c58565b6108035760405162461bcd60e51b815260206004820152602c60248201527f4552433732313a20617070726f76656420717565727920666f72206e6f6e657860448201526b34b9ba32b73a103a37b5b2b760a11b60648201526084015b60405180910390fd5b506000908152600460205260409020546001600160a01b031690565b600061082a82610d7a565b9050806001600160a01b0316836001600160a01b031614156108985760405162461bcd60e51b815260206004820152602160248201527f4552433732313a20617070726f76616c20746f2063757272656e74206f776e656044820152603960f91b60648201526084016107fa565b336001600160a01b03821614806108b457506108b4813361060b565b6109265760405162461bcd60e51b815260206004820152603860248201527f4552433732313a20617070726f76652063616c6c6572206973206e6f74206f7760448201527f6e6572206e6f7220617070726f76656420666f7220616c6c000000000000000060648201526084016107fa565b6109308383611c75565b505050565b336001600160a01b0316600c8960405161094f9190612e7d565b908152604051908190036020019020546001600160a01b031614610985576040516282b42960e81b815260040160405180910390fd5b86600d896040516109969190612e7d565b908152602001604051809103902090805190602001906109b79291906127e4565b5085600e896040516109c99190612e7d565b908152602001604051809103902090805190602001906109ea9291906127e4565b5084600f896040516109fc9190612e7d565b90815260200160405180910390209080519060200190610a1d9291906127e4565b5083601089604051610a2f9190612e7d565b90815260200160405180910390209080519060200190610a509291906127e4565b5082601189604051610a629190612e7d565b90815260200160405180910390209080519060200190610a839291906127e4565b5081601289604051610a959190612e7d565b90815260200160405180910390209080519060200190610ab69291906127e4565b5080601389604051610ac89190612e7d565b90815260200160405180910390209080519060200190610ae99291906127e4565b50610b1a6040518060400160405280600e81526020016d095cc81c9958dbdc991cc81cd95d60921b81525089611ce3565b5050505050505050565b610b2e3382611d28565b610b4a5760405162461bcd60e51b81526004016107fa90612e99565b610930838383611e0e565b600b8054610b6290612e48565b80601f0160208091040260200160405190810160405280929190818152602001828054610b8e90612e48565b8015610bdb5780601f10610bb057610100808354040283529160200191610bdb565b820191906000526020600020905b815481529060010190602001808311610bbe57829003601f168201915b505050505081565b805160208183018101805160128252928201919093012091528054610b6290612e48565b6007546001600160a01b03163314610c1e57600080fd5b6040514790600090339083908381818185875af1925050503d8060008114610c62576040519150601f19603f3d011682016040523d82523d6000602084013e610c67565b606091505b5050905080610cb85760405162461bcd60e51b815260206004820152601860248201527f4661696c656420746f207769746864726177204d61746963000000000000000060448201526064016107fa565b5050565b61093083838360405180602001604052806000815250611413565b60146020526000908152604090208054610b6290612e48565b60008083838080601f016020809104026020016040519081016040528093929190818152602001838380828437600092019190915250508251929350505080610d3857600080fd5b8060031415610d51576509184e72a000925050506106fa565b8060041415610d6a576509184e72a000925050506106fa565b506509184e72a000949350505050565b6000818152600260205260408120546001600160a01b0316806106fa5760405162461bcd60e51b815260206004820152602960248201527f4552433732313a206f776e657220717565727920666f72206e6f6e657869737460448201526832b73a103a37b5b2b760b91b60648201526084016107fa565b8051602081830181018051600d8252928201919093012091528054610b6290612e48565b8051600090829080610e2657600080fd5b9392505050565b60006001600160a01b038216610e985760405162461bcd60e51b815260206004820152602a60248201527f4552433732313a2062616c616e636520717565727920666f7220746865207a65604482015269726f206164647265737360b01b60648201526084016107fa565b506001600160a01b031660009081526003602052604090205490565b8051602081830181018051600f8252928201919093012091528054610b6290612e48565b805160208183018101805160138252928201919093012091528054610b6290612e48565b6060806060806060806060600d8989604051610f19929190612eea565b9081526020016040518091039020600e8a8a604051610f39929190612eea565b9081526020016040518091039020600f8b8b604051610f59929190612eea565b908152602001604051809103902060108c8c604051610f79929190612eea565b908152602001604051809103902060118d8d604051610f99929190612eea565b908152602001604051809103902060128e8e604051610fb9929190612eea565b908152602001604051809103902060138f8f604051610fd9929190612eea565b9081526020016040518091039020868054610ff390612e48565b80601f016020809104026020016040519081016040528092919081815260200182805461101f90612e48565b801561106c5780601f106110415761010080835404028352916020019161106c565b820191906000526020600020905b81548152906001019060200180831161104f57829003601f168201915b5050505050965085805461107f90612e48565b80601f01602080910402602001604051908101604052809291908181526020018280546110ab90612e48565b80156110f85780601f106110cd576101008083540402835291602001916110f8565b820191906000526020600020905b8154815290600101906020018083116110db57829003601f168201915b5050505050955084805461110b90612e48565b80601f016020809104026020016040519081016040528092919081815260200182805461113790612e48565b80156111845780601f1061115957610100808354040283529160200191611184565b820191906000526020600020905b81548152906001019060200180831161116757829003601f168201915b5050505050945083805461119790612e48565b80601f01602080910402602001604051908101604052809291908181526020018280546111c390612e48565b80156112105780601f106111e557610100808354040283529160200191611210565b820191906000526020600020905b8154815290600101906020018083116111f357829003601f168201915b5050505050935082805461122390612e48565b80601f016020809104026020016040519081016040528092919081815260200182805461124f90612e48565b801561129c5780601f106112715761010080835404028352916020019161129c565b820191906000526020600020905b81548152906001019060200180831161127f57829003601f168201915b505050505092508180546112af90612e48565b80601f01602080910402602001604051908101604052809291908181526020018280546112db90612e48565b80156113285780601f106112fd57610100808354040283529160200191611328565b820191906000526020600020905b81548152906001019060200180831161130b57829003601f168201915b5050505050915080805461133b90612e48565b80601f016020809104026020016040519081016040528092919081815260200182805461136790612e48565b80156113b45780601f10611389576101008083540402835291602001916113b4565b820191906000526020600020905b81548152906001019060200180831161139757829003601f168201915b50505050509050965096509650965096509650965092959891949750929550565b60606001805461070f90612e48565b8051602081830181018051600e8252928201919093012091528054610b6290612e48565b610cb8338383611faa565b61141d3383611d28565b6114395760405162461bcd60e51b81526004016107fa90612e99565b61144584848484612079565b50505050565b6000600c838360405161145f929190612eea565b908152604051908190036020019020546001600160a01b0316905092915050565b606061148b82611c58565b6114f15760405162461bcd60e51b815260206004820152603160248201527f45524337323155524953746f726167653a2055524920717565727920666f72206044820152703737b732bc34b9ba32b73a103a37b5b2b760791b60648201526084016107fa565b6000828152600660205260408120805461150a90612e48565b80601f016020809104026020016040519081016040528092919081815260200182805461153690612e48565b80156115835780601f1061155857610100808354040283529160200191611583565b820191906000526020600020905b81548152906001019060200180831161156657829003601f168201915b5050505050905060006115a160408051602081019091526000815290565b90508051600014156115b4575092915050565b8151156115e65780826040516020016115ce929190612efa565b60405160208183030381529060405292505050919050565b6115ef846120ac565b949350505050565b805160208183018101805160108252928201919093012091528054610b6290612e48565b60008061162783610e15565b9050600081118015610e265750600a101592915050565b60006001600160a01b0316600c838360405161165b929190612eea565b908152604051908190036020019020546001600160a01b03161461169257604051630ea075bf60e21b815260040160405180910390fd5b600061169e8383610cf0565b90506116c96040518060400160405280600681526020016509590b08095960d21b8152508234612183565b803410156117105760405162461bcd60e51b8152602060048201526014602482015273596f75206e65656420746f20706179206d6f726560601b60448201526064016107fa565b60008383600b60405160200161172893929190612fc3565b60405160208183030381529060405290506000600982600a60405160200161175293929190612fec565b6040516020818303038152906040529050600061176e60085490565b905060006117b187878080601f016020809104026020016040519081016040528093929190818152602001838380828437600092019190915250610e1592505050565b905060006117be826121ca565b905061186e6040518060600160405280603181526020016133cd6031913986600b80546117ea90612e48565b80601f016020809104026020016040519081016040528092919081815260200182805461181690612e48565b80156118635780601f1061183857610100808354040283529160200191611863565b820191906000526020600020905b81548152906001019060200180831161184657829003601f168201915b5050505050866122c8565b60006118a6898961187e88612311565b85604051602001611892949392919061301f565b604051602081830303815290604052612311565b90506000816040516020016118bb9190613110565b60408051601f198184030181526060830190915260398083529092506118e991906133946020830139611c12565b6119196040518060400160405280600e81526020016d46696e616c20746f6b656e55524960901b81525082611ce3565b61193a6040518060600160405280603981526020016133fe60399139611c12565b6119443386612477565b61194e8582612491565b33600c8b8b604051611961929190612eea565b908152604080516020928190038301812080546001600160a01b0319166001600160a01b0395909516949094179093558281018152600d83526c095cc81c9959da5cdd195c9959609a1b828401528051601f8d018390048302810183019091528b81526119e992918d908d9081908401838280828437600092019190915250611ce392505050565b60008581526014602090815260409091208851611a08928a01906127e4565b50611a17600880546001019055565b50505050505050505050565b6060611a636040518060400160405280601f81526020017f47657474696e6720616c6c206e616d65732066726f6d20636f6e747261637400815250611c12565b6000611a6e60085490565b67ffffffffffffffff811115611a8657611a8661297a565b604051908082528060200260200182016040528015611ab957816020015b6060815260200190600190039081611aa45790505b50905060005b600854811015611be85760008181526014602052604090208054611ae290612e48565b80601f0160208091040260200160405190810160405280929190818152602001828054611b0e90612e48565b8015611b5b5780601f10611b3057610100808354040283529160200191611b5b565b820191906000526020600020905b815481529060010190602001808311611b3e57829003601f168201915b5050505050828281518110611b7257611b72613155565b6020026020010181905250611bd66040518060400160405280601781526020017f4e616d6520666f7220746f6b656e20256420697320257300000000000000000081525082848481518110611bc957611bc9613155565b602002602001015161251c565b80611be081613181565b915050611abf565b50919050565b805160208183018101805160118252928201919093012091528054610b6290612e48565b611c5581604051602401611c269190612908565b60408051601f198184030181529190526020810180516001600160e01b031663104c13eb60e21b17905261255f565b50565b6000908152600260205260409020546001600160a01b0316151590565b600081815260046020526040902080546001600160a01b0319166001600160a01b0384169081179091558190611caa82610d7a565b6001600160a01b03167f8c5be1e5ebec7d5bd14f71427d1e84f3dd0314c0f7b2291e5b200ac8c7c3b92560405160405180910390a45050565b610cb88282604051602401611cf992919061319c565b60408051601f198184030181529190526020810180516001600160e01b0316634b5c427760e01b17905261255f565b6000611d3382611c58565b611d945760405162461bcd60e51b815260206004820152602c60248201527f4552433732313a206f70657261746f7220717565727920666f72206e6f6e657860448201526b34b9ba32b73a103a37b5b2b760a11b60648201526084016107fa565b6000611d9f83610d7a565b9050806001600160a01b0316846001600160a01b03161480611dda5750836001600160a01b0316611dcf84610792565b6001600160a01b0316145b806115ef57506001600160a01b0380821660009081526005602090815260408083209388168352929052205460ff166115ef565b826001600160a01b0316611e2182610d7a565b6001600160a01b031614611e855760405162461bcd60e51b815260206004820152602560248201527f4552433732313a207472616e736665722066726f6d20696e636f72726563742060448201526437bbb732b960d91b60648201526084016107fa565b6001600160a01b038216611ee75760405162461bcd60e51b8152602060048201526024808201527f4552433732313a207472616e7366657220746f20746865207a65726f206164646044820152637265737360e01b60648201526084016107fa565b611ef2600082611c75565b6001600160a01b0383166000908152600360205260408120805460019290611f1b9084906131ca565b90915550506001600160a01b0382166000908152600360205260408120805460019290611f499084906131e1565b909155505060008181526002602052604080822080546001600160a01b0319166001600160a01b0386811691821790925591518493918716917fddf252ad1be2c89b69c2b068fc378daa952ba7f163c4a11628f55a4df523b3ef91a4505050565b816001600160a01b0316836001600160a01b0316141561200c5760405162461bcd60e51b815260206004820152601960248201527f4552433732313a20617070726f766520746f2063616c6c65720000000000000060448201526064016107fa565b6001600160a01b03838116600081815260056020908152604080832094871680845294825291829020805460ff191686151590811790915591519182527f17307eab39ab6107e8899845ad3d59bd9653f200f220920489ca2b5937696c31910160405180910390a3505050565b612084848484611e0e565b61209084848484612580565b6114455760405162461bcd60e51b81526004016107fa906131f9565b60606120b782611c58565b61211b5760405162461bcd60e51b815260206004820152602f60248201527f4552433732314d657461646174613a2055524920717565727920666f72206e6f60448201526e3732bc34b9ba32b73a103a37b5b2b760891b60648201526084016107fa565b600061213260408051602081019091526000815290565b905060008151116121525760405180602001604052806000815250610e26565b8061215c846121ca565b60405160200161216d929190612efa565b6040516020818303038152906040529392505050565b61093083838360405160240161219b9392919061324b565b60408051601f198184030181529190526020810180516001600160e01b031663969cdd0360e01b17905261255f565b6060816121ee5750506040805180820190915260018152600360fc1b602082015290565b8160005b8115612218578061220281613181565b91506122119050600a83613286565b91506121f2565b60008167ffffffffffffffff8111156122335761223361297a565b6040519080825280601f01601f19166020018201604052801561225d576020820181803683370190505b5090505b84156115ef576122726001836131ca565b915061227f600a8661329a565b61228a9060306131e1565b60f81b81838151811061229f5761229f613155565b60200101906001600160f81b031916908160001a9053506122c1600a86613286565b9450612261565b611445848484846040516024016122e294939291906132ae565b60408051601f198184030181529190526020810180516001600160e01b0316639fd009f560e01b17905261255f565b805160609080612331575050604080516020810190915260008152919050565b600060036123408360026131e1565b61234a9190613286565b6123559060046132f9565b905060006123648260206131e1565b67ffffffffffffffff81111561237c5761237c61297a565b6040519080825280601f01601f1916602001820160405280156123a6576020820181803683370190505b5090506000604051806060016040528060408152602001613437604091399050600181016020830160005b86811015612432576003818a01810151603f601282901c8116860151600c83901c8216870151600684901c831688015192909316870151600891821b60ff94851601821b92841692909201901b91160160e01b8352600490920191016123d1565b50600386066001811461244c576002811461245d57612469565b613d3d60f01b600119830152612469565b603d60f81b6000198301525b505050918152949350505050565b610cb882826040518060200160405280600081525061267e565b61249a82611c58565b6124fd5760405162461bcd60e51b815260206004820152602e60248201527f45524337323155524953746f726167653a2055524920736574206f66206e6f6e60448201526d32bc34b9ba32b73a103a37b5b2b760911b60648201526084016107fa565b60008281526006602090815260409091208251610930928401906127e4565b61093083838360405160240161253493929190613318565b60408051601f198184030181529190526020810180516001600160e01b031663a3f5c73960e01b1790525b80516a636f6e736f6c652e6c6f67602083016000808483855afa5050505050565b60006001600160a01b0384163b1561267357604051630a85bd0160e11b81526001600160a01b0385169063150b7a02906125c4903390899088908890600401613343565b6020604051808303816000875af19250505080156125ff575060408051601f3d908101601f191682019092526125fc91810190613376565b60015b612659573d80801561262d576040519150601f19603f3d011682016040523d82523d6000602084013e612632565b606091505b5080516126515760405162461bcd60e51b81526004016107fa906131f9565b805181602001fd5b6001600160e01b031916630a85bd0160e11b1490506115ef565b506001949350505050565b61268883836126b1565b6126956000848484612580565b6109305760405162461bcd60e51b81526004016107fa906131f9565b6001600160a01b0382166127075760405162461bcd60e51b815260206004820181905260248201527f4552433732313a206d696e7420746f20746865207a65726f206164647265737360448201526064016107fa565b61271081611c58565b1561275d5760405162461bcd60e51b815260206004820152601c60248201527f4552433732313a20746f6b656e20616c7265616479206d696e7465640000000060448201526064016107fa565b6001600160a01b03821660009081526003602052604081208054600192906127869084906131e1565b909155505060008181526002602052604080822080546001600160a01b0319166001600160a01b03861690811790915590518392907fddf252ad1be2c89b69c2b068fc378daa952ba7f163c4a11628f55a4df523b3ef908290a45050565b8280546127f090612e48565b90600052602060002090601f0160209004810192826128125760008555612858565b82601f1061282b57805160ff1916838001178555612858565b82800160010185558215612858579182015b8281111561285857825182559160200191906001019061283d565b50612864929150612868565b5090565b5b808211156128645760008155600101612869565b6001600160e01b031981168114611c5557600080fd5b6000602082840312156128a557600080fd5b8135610e268161287d565b60005b838110156128cb5781810151838201526020016128b3565b838111156114455750506000910152565b600081518084526128f48160208601602086016128b0565b601f01601f19169290920160200192915050565b602081526000610e2660208301846128dc565b60006020828403121561292d57600080fd5b5035919050565b80356001600160a01b038116811461294b57600080fd5b919050565b6000806040838503121561296357600080fd5b61296c83612934565b946020939093013593505050565b634e487b7160e01b600052604160045260246000fd5b600067ffffffffffffffff808411156129ab576129ab61297a565b604051601f8501601f19908116603f011681019082821181831017156129d3576129d361297a565b816040528093508581528686860111156129ec57600080fd5b858560208301376000602087830101525050509392505050565b600082601f830112612a1757600080fd5b610e2683833560208501612990565b600080600080600080600080610100898b031215612a4357600080fd5b883567ffffffffffffffff80821115612a5b57600080fd5b612a678c838d01612a06565b995060208b0135915080821115612a7d57600080fd5b612a898c838d01612a06565b985060408b0135915080821115612a9f57600080fd5b612aab8c838d01612a06565b975060608b0135915080821115612ac157600080fd5b612acd8c838d01612a06565b965060808b0135915080821115612ae357600080fd5b612aef8c838d01612a06565b955060a08b0135915080821115612b0557600080fd5b612b118c838d01612a06565b945060c08b0135915080821115612b2757600080fd5b612b338c838d01612a06565b935060e08b0135915080821115612b4957600080fd5b50612b568b828c01612a06565b9150509295985092959890939650565b600080600060608486031215612b7b57600080fd5b612b8484612934565b9250612b9260208501612934565b9150604084013590509250925092565b600060208284031215612bb457600080fd5b813567ffffffffffffffff811115612bcb57600080fd5b6115ef84828501612a06565b60008060208385031215612bea57600080fd5b823567ffffffffffffffff80821115612c0257600080fd5b818501915085601f830112612c1657600080fd5b813581811115612c2557600080fd5b866020828501011115612c3757600080fd5b60209290920196919550909350505050565b600060208284031215612c5b57600080fd5b610e2682612934565b60e081526000612c7760e083018a6128dc565b8281036020840152612c89818a6128dc565b90508281036040840152612c9d81896128dc565b90508281036060840152612cb181886128dc565b90508281036080840152612cc581876128dc565b905082810360a0840152612cd981866128dc565b905082810360c0840152612ced81856128dc565b9a9950505050505050505050565b60008060408385031215612d0e57600080fd5b612d1783612934565b915060208301358015158114612d2c57600080fd5b809150509250929050565b60008060008060808587031215612d4d57600080fd5b612d5685612934565b9350612d6460208601612934565b925060408501359150606085013567ffffffffffffffff811115612d8757600080fd5b8501601f81018713612d9857600080fd5b612da787823560208401612990565b91505092959194509250565b60008060408385031215612dc657600080fd5b612dcf83612934565b9150612ddd60208401612934565b90509250929050565b6000602080830181845280855180835260408601915060408160051b870101925083870160005b82811015612e3b57603f19888603018452612e298583516128dc565b94509285019290850190600101612e0d565b5092979650505050505050565b600181811c90821680612e5c57607f821691505b60208210811415611be857634e487b7160e01b600052602260045260246000fd5b60008251612e8f8184602087016128b0565b9190910192915050565b60208082526031908201527f4552433732313a207472616e736665722063616c6c6572206973206e6f74206f6040820152701ddb995c881b9bdc88185c1c1c9bdd9959607a1b606082015260800190565b8183823760009101908152919050565b60008351612f0c8184602088016128b0565b835190830190612f208183602088016128b0565b01949350505050565b8054600090600181811c9080831680612f4357607f831692505b6020808410821415612f6557634e487b7160e01b600052602260045260246000fd5b818015612f795760018114612f8a57612fb7565b60ff19861689528489019650612fb7565b60008881526020902060005b86811015612faf5781548b820152908501908301612f96565b505084890196505b50505050505092915050565b82848237601760f91b818401908152600090612fe26001820185612f29565b9695505050505050565b6000612ff88286612f29565b84516130088183602089016128b0565b61301481830186612f29565b979650505050505050565b693d913730b6b2911d101160b11b81528385600a8301376000848201600a8101600081527f222c20226465736372697074696f6e223a20224120646f6d61696e206f6e20748152507f6865204e696e6a61206e616d652073657276696365222c2022696d616765223a602a8201527f2022646174613a696d6167652f7376672b786d6c3b6261736536342c00000000604a82015284516130c68160668401602089016128b0565b6b1116113632b733ba34111d1160a11b6066929091019182015283516130f38160728401602088016128b0565b61227d60f01b607292909101918201526074019695505050505050565b7f646174613a6170706c69636174696f6e2f6a736f6e3b6261736536342c00000081526000825161314881601d8501602087016128b0565b91909101601d0192915050565b634e487b7160e01b600052603260045260246000fd5b634e487b7160e01b600052601160045260246000fd5b60006000198214156131955761319561316b565b5060010190565b6040815260006131af60408301856128dc565b82810360208401526131c181856128dc565b95945050505050565b6000828210156131dc576131dc61316b565b500390565b600082198211156131f4576131f461316b565b500190565b60208082526032908201527f4552433732313a207472616e7366657220746f206e6f6e20455243373231526560408201527131b2b4bb32b91034b6b83632b6b2b73a32b960711b606082015260800190565b60608152600061325e60608301866128dc565b60208301949094525060400152919050565b634e487b7160e01b600052601260045260246000fd5b60008261329557613295613270565b500490565b6000826132a9576132a9613270565b500690565b6080815260006132c160808301876128dc565b82810360208401526132d381876128dc565b905082810360408401526132e781866128dc565b91505082606083015295945050505050565b60008160001904831182151516156133135761331361316b565b500290565b60608152600061332b60608301866128dc565b8460208401528281036040840152612fe281856128dc565b6001600160a01b0385811682528416602082015260408101839052608060608201819052600090612fe2908301846128dc565b60006020828403121561338857600080fd5b8151610e268161287d56fe0a2d2d2d2d2d2d2d2d2d2d2d2d2d2d2d2d2d2d2d2d2d2d2d2d2d2d2d2d2d2d2d2d2d2d2d2d2d2d2d2d2d2d2d2d2d2d2d2d2d2d2d2d2d2d2d2d5265676973746572696e672025732e2573206f6e2074686520636f6e7472616374207769746820746f6b656e49442025642d2d2d2d2d2d2d2d2d2d2d2d2d2d2d2d2d2d2d2d2d2d2d2d2d2d2d2d2d2d2d2d2d2d2d2d2d2d2d2d2d2d2d2d2d2d2d2d2d2d2d2d2d2d2d2d0a4142434445464748494a4b4c4d4e4f505152535455565758595a6162636465666768696a6b6c6d6e6f707172737475767778797a303132333435363738392b2fa2646970667358221220b592fc3abe777abe4cb7532292c36870d5cb7fea3a2dd02806f3ab84df16f7b264736f6c634300080a00333c73766720786d6c6e733d22687474703a2f2f7777772e77332e6f72672f323030302f737667222077696474683d2232373022206865696768743d22323730222066696c6c3d226e6f6e65223e3c706174682066696c6c3d2275726c282342292220643d224d302030683237307632373048307a222f3e3c646566733e3c66696c7465722069643d22412220636f6c6f722d696e746572706f6c6174696f6e2d66696c746572733d2273524742222066696c746572556e6974733d227573657253706163654f6e55736522206865696768743d22323730222077696474683d22323730223e3c666544726f70536861646f772064783d2230222064793d22312220737464446576696174696f6e3d22322220666c6f6f642d6f7061636974793d222e323235222077696474683d223230302522206865696768743d2232303025222f3e3c2f66696c7465723e3c2f646566733e3c7061746820643d224d37322e3836332034322e393439632d2e3636382d2e3338372d312e3432362d2e35392d322e3139372d2e3539732d312e3532392e3230342d322e3139372e35396c2d31302e30383120362e3033322d362e383520332e3933342d31302e30383120362e303332632d2e3636382e3338372d312e3432362e35392d322e3139372e3539732d312e3532392d2e3230342d322e3139372d2e35396c2d382e3031332d342e37323161342e353220342e35322030203020312d312e3538392d312e363136632d2e3338342d2e3636352d2e3539342d312e3431382d2e3630382d322e313837762d392e3331632d2e3031332d2e3737352e3138352d312e3533382e3537322d322e32303861342e323520342e323520302030203120312e3632352d312e3539356c372e3838342d342e3539632e3636382d2e33383720312e3432362d2e353920322e3139372d2e353973312e3532392e32303420322e3139372e35396c372e38383420342e353961342e353220342e353220302030203120312e35383920312e363136632e3338342e3636352e35393420312e3431382e36303820322e31383776362e3033326c362e38352d342e303635762d362e303332632e3031332d2e3737352d2e3138352d312e3533382d2e3537322d322e32303861342e323520342e32352030203020302d312e3632352d312e3539354c34312e3435362032342e3539632d2e3636382d2e3338372d312e3432362d2e35392d322e3139372d2e3539732d312e3532392e3230342d322e3139372e35396c2d31342e38363420382e36353561342e323520342e32352030203020302d312e36323520312e353935632d2e3338372e36372d2e35383520312e3433342d2e35373220322e3230387631372e343431632d2e3031332e3737352e31383520312e3533382e35373220322e32303861342e323520342e323520302030203020312e36323520312e3539356c31342e38363420382e363535632e3636382e33383720312e3432362e353920322e3139372e353973312e3532392d2e32303420322e3139372d2e35396c31302e3038312d352e39303120362e38352d342e3036352031302e3038312d352e393031632e3636382d2e33383720312e3432362d2e353920322e3139372d2e353973312e3532392e32303420322e3139372e35396c372e38383420342e353961342e353220342e353220302030203120312e35383920312e363136632e3338342e3636352e35393420312e3431382e36303820322e31383776392e333131632e3031332e3737352d2e31383520312e3533382d2e35373220322e32303861342e323520342e32352030203020312d312e36323520312e3539356c2d372e38383420342e373231632d2e3636382e3338372d312e3432362e35392d322e3139372e3539732d312e3532392d2e3230342d322e3139372d2e35396c2d372e3838342d342e353961342e353220342e35322030203020312d312e3538392d312e363136632d2e3338352d2e3636352d2e3539342d312e3431382d2e3630382d322e313837762d362e3033326c2d362e383520342e30363576362e303332632d2e3031332e3737352e31383520312e3533382e35373220322e32303861342e323520342e323520302030203020312e36323520312e3539356c31342e38363420382e363535632e3636382e33383720312e3432362e353920322e3139372e353973312e3532392d2e32303420322e3139372d2e35396c31342e3836342d382e363535632e3635372d2e33393420312e3230342d2e393520312e3538392d312e363136732e3539342d312e3431382e3630392d322e3138375635352e353338632e3031332d2e3737352d2e3138352d312e3533382d2e3537322d322e32303861342e323520342e32352030203020302d312e3632352d312e3539356c2d31342e3939332d382e3738367a222066696c6c3d2223666666222f3e3c646566733e3c6c696e6561724772616469656e742069643d2242222078313d2230222079313d2230222078323d22323730222079323d2232373022206772616469656e74556e6974733d227573657253706163654f6e557365223e3c73746f702073746f702d636f6c6f723d2223636235656565222f3e3c73746f70206f66667365743d2231222073746f702d636f6c6f723d2223306364376534222073746f702d6f7061636974793d222e3939222f3e3c2f6c696e6561724772616469656e743e3c2f646566733e3c7465787420783d2233322e352220793d223233312220666f6e742d73697a653d223237222066696c6c3d2223666666222066696c7465723d2275726c282341292220666f6e742d66616d696c793d22506c7573204a616b617274612053616e732c44656a6156752053616e732c4e6f746f20436f6c6f7220456d6f6a692c4170706c6520436f6c6f7220456d6f6a692c73616e732d73657269662220666f6e742d7765696768743d22626f6c64223e54484953204953204d5920444f4d41494e5320434f4e54524143542e204e4943452e",
  "linkReferences": {},
  "deployedLinkReferences": {}
}