{
  "_format": "hh-sol-artifact-1",
  "contractName": "DomainService",
  "sourceName": "contracts/DomainMinter.sol",
  "abi": [
    {
      "inputs": [
        {
          "internalType": "string",
          "name": "_tld",
          "type": "string"
        }
      ],
      "stateMutability": "payable",
      "type": "constructor"
    },
    {
      "anonymous": false,
      "inputs": [
        {
          "indexed": true,
          "internalType": "address",
          "name": "owner",
          "type": "address"
        },
        {
          "indexed": true,
          "internalType": "address",
          "name": "approved",
          "type": "address"
        },
        {
          "indexed": true,
          "internalType": "uint256",
          "name": "tokenId",
          "type": "uint256"
        }
      ],
      "name": "Approval",
      "type": "event"
    },
    {
      "anonymous": false,
      "inputs": [
        {
          "indexed": true,
          "internalType": "address",
          "name": "owner",
          "type": "address"
        },
        {
          "indexed": true,
          "internalType": "address",
          "name": "operator",
          "type": "address"
        },
        {
          "indexed": false,
          "internalType": "bool",
          "name": "approved",
          "type": "bool"
        }
      ],
      "name": "ApprovalForAll",
      "type": "event"
    },
    {
      "anonymous": false,
      "inputs": [
        {
          "indexed": true,
          "internalType": "address",
          "name": "from",
          "type": "address"
        },
        {
          "indexed": true,
          "internalType": "address",
          "name": "to",
          "type": "address"
        },
        {
          "indexed": true,
          "internalType": "uint256",
          "name": "tokenId",
          "type": "uint256"
        }
      ],
      "name": "Transfer",
      "type": "event"
    },
    {
      "inputs": [
        {
          "internalType": "address",
          "name": "to",
          "type": "address"
        },
        {
          "internalType": "uint256",
          "name": "tokenId",
          "type": "uint256"
        }
      ],
      "name": "approve",
      "outputs": [],
      "stateMutability": "nonpayable",
      "type": "function"
    },
    {
      "inputs": [
        {
          "internalType": "address",
          "name": "owner",
          "type": "address"
        }
      ],
      "name": "balanceOf",
      "outputs": [
        {
          "internalType": "uint256",
          "name": "",
          "type": "uint256"
        }
      ],
      "stateMutability": "view",
      "type": "function"
    },
    {
      "inputs": [
        {
          "internalType": "string",
          "name": "",
          "type": "string"
        }
      ],
      "name": "bio",
      "outputs": [
        {
          "internalType": "string",
          "name": "",
          "type": "string"
        }
      ],
      "stateMutability": "view",
      "type": "function"
    },
    {
      "inputs": [
        {
          "internalType": "string",
          "name": "",
          "type": "string"
        }
      ],
      "name": "domains",
      "outputs": [
        {
          "internalType": "address",
          "name": "",
          "type": "address"
        }
      ],
      "stateMutability": "view",
      "type": "function"
    },
    {
      "inputs": [
        {
          "internalType": "string",
          "name": "",
          "type": "string"
        }
      ],
      "name": "emailLink",
      "outputs": [
        {
          "internalType": "string",
          "name": "",
          "type": "string"
        }
      ],
      "stateMutability": "view",
      "type": "function"
    },
    {
      "inputs": [
        {
          "internalType": "string",
          "name": "_name",
          "type": "string"
        }
      ],
      "name": "getAddress",
      "outputs": [
        {
          "internalType": "address",
          "name": "",
          "type": "address"
        }
      ],
      "stateMutability": "view",
      "type": "function"
    },
    {
      "inputs": [
        {
          "internalType": "uint256",
          "name": "tokenId",
          "type": "uint256"
        }
      ],
      "name": "getApproved",
      "outputs": [
        {
          "internalType": "address",
          "name": "",
          "type": "address"
        }
      ],
      "stateMutability": "view",
      "type": "function"
    },
    {
      "inputs": [
        {
          "internalType": "string",
          "name": "_name",
          "type": "string"
        }
      ],
      "name": "getLength",
      "outputs": [
        {
          "internalType": "uint256",
          "name": "",
          "type": "uint256"
        }
      ],
      "stateMutability": "pure",
      "type": "function"
    },
    {
      "inputs": [
        {
          "internalType": "string",
          "name": "_name",
          "type": "string"
        }
      ],
      "name": "getPrice",
      "outputs": [
        {
          "internalType": "uint256",
          "name": "",
          "type": "uint256"
        }
      ],
      "stateMutability": "pure",
      "type": "function"
    },
    {
      "inputs": [
        {
          "internalType": "string",
          "name": "_name",
          "type": "string"
        }
      ],
      "name": "getRecords",
      "outputs": [
        {
          "internalType": "string",
          "name": "",
          "type": "string"
        },
        {
          "internalType": "string",
          "name": "",
          "type": "string"
        },
        {
          "internalType": "string",
          "name": "",
          "type": "string"
        },
        {
          "internalType": "string",
          "name": "",
          "type": "string"
        },
        {
          "internalType": "string",
          "name": "",
          "type": "string"
        },
        {
          "internalType": "string",
          "name": "",
          "type": "string"
        },
        {
          "internalType": "string",
          "name": "",
          "type": "string"
        }
      ],
      "stateMutability": "view",
      "type": "function"
    },
    {
      "inputs": [
        {
          "internalType": "string",
          "name": "",
          "type": "string"
        }
      ],
      "name": "githubLink",
      "outputs": [
        {
          "internalType": "string",
          "name": "",
          "type": "string"
        }
      ],
      "stateMutability": "view",
      "type": "function"
    },
    {
      "inputs": [
        {
          "internalType": "address",
          "name": "owner",
          "type": "address"
        },
        {
          "internalType": "address",
          "name": "operator",
          "type": "address"
        }
      ],
      "name": "isApprovedForAll",
      "outputs": [
        {
          "internalType": "bool",
          "name": "",
          "type": "bool"
        }
      ],
      "stateMutability": "view",
      "type": "function"
    },
    {
      "inputs": [
        {
          "internalType": "string",
          "name": "",
          "type": "string"
        }
      ],
      "name": "leetcodeLink",
      "outputs": [
        {
          "internalType": "string",
          "name": "",
          "type": "string"
        }
      ],
      "stateMutability": "view",
      "type": "function"
    },
    {
      "inputs": [
        {
          "internalType": "string",
          "name": "",
          "type": "string"
        }
      ],
      "name": "linkedInLink",
      "outputs": [
        {
          "internalType": "string",
          "name": "",
          "type": "string"
        }
      ],
      "stateMutability": "view",
      "type": "function"
    },
    {
      "inputs": [],
      "name": "name",
      "outputs": [
        {
          "internalType": "string",
          "name": "",
          "type": "string"
        }
      ],
      "stateMutability": "view",
      "type": "function"
    },
    {
      "inputs": [
        {
          "internalType": "uint256",
          "name": "tokenId",
          "type": "uint256"
        }
      ],
      "name": "ownerOf",
      "outputs": [
        {
          "internalType": "address",
          "name": "",
          "type": "address"
        }
      ],
      "stateMutability": "view",
      "type": "function"
    },
    {
      "inputs": [
        {
          "internalType": "string",
          "name": "_name",
          "type": "string"
        }
      ],
      "name": "register",
      "outputs": [],
      "stateMutability": "payable",
      "type": "function"
    },
    {
      "inputs": [
        {
          "internalType": "address",
          "name": "from",
          "type": "address"
        },
        {
          "internalType": "address",
          "name": "to",
          "type": "address"
        },
        {
          "internalType": "uint256",
          "name": "tokenId",
          "type": "uint256"
        }
      ],
      "name": "safeTransferFrom",
      "outputs": [],
      "stateMutability": "nonpayable",
      "type": "function"
    },
    {
      "inputs": [
        {
          "internalType": "address",
          "name": "from",
          "type": "address"
        },
        {
          "internalType": "address",
          "name": "to",
          "type": "address"
        },
        {
          "internalType": "uint256",
          "name": "tokenId",
          "type": "uint256"
        },
        {
          "internalType": "bytes",
          "name": "_data",
          "type": "bytes"
        }
      ],
      "name": "safeTransferFrom",
      "outputs": [],
      "stateMutability": "nonpayable",
      "type": "function"
    },
    {
      "inputs": [
        {
          "internalType": "address",
          "name": "operator",
          "type": "address"
        },
        {
          "internalType": "bool",
          "name": "approved",
          "type": "bool"
        }
      ],
      "name": "setApprovalForAll",
      "outputs": [],
      "stateMutability": "nonpayable",
      "type": "function"
    },
    {
      "inputs": [
        {
          "internalType": "string",
          "name": "_name",
          "type": "string"
        },
        {
          "internalType": "string",
          "name": "_bio",
          "type": "string"
        },
        {
          "internalType": "string",
          "name": "_linkedIn",
          "type": "string"
        },
        {
          "internalType": "string",
          "name": "_twitter",
          "type": "string"
        },
        {
          "internalType": "string",
          "name": "_github",
          "type": "string"
        },
        {
          "internalType": "string",
          "name": "_website",
          "type": "string"
        },
        {
          "internalType": "string",
          "name": "_email",
          "type": "string"
        },
        {
          "internalType": "string",
          "name": "_leetcode",
          "type": "string"
        }
      ],
      "name": "setRecords",
      "outputs": [],
      "stateMutability": "nonpayable",
      "type": "function"
    },
    {
      "inputs": [
        {
          "internalType": "bytes4",
          "name": "interfaceId",
          "type": "bytes4"
        }
      ],
      "name": "supportsInterface",
      "outputs": [
        {
          "internalType": "bool",
          "name": "",
          "type": "bool"
        }
      ],
      "stateMutability": "view",
      "type": "function"
    },
    {
      "inputs": [],
      "name": "symbol",
      "outputs": [
        {
          "internalType": "string",
          "name": "",
          "type": "string"
        }
      ],
      "stateMutability": "view",
      "type": "function"
    },
    {
      "inputs": [],
      "name": "tld",
      "outputs": [
        {
          "internalType": "string",
          "name": "",
          "type": "string"
        }
      ],
      "stateMutability": "view",
      "type": "function"
    },
    {
      "inputs": [
        {
          "internalType": "uint256",
          "name": "tokenId",
          "type": "uint256"
        }
      ],
      "name": "tokenURI",
      "outputs": [
        {
          "internalType": "string",
          "name": "",
          "type": "string"
        }
      ],
      "stateMutability": "view",
      "type": "function"
    },
    {
      "inputs": [
        {
          "internalType": "address",
          "name": "from",
          "type": "address"
        },
        {
          "internalType": "address",
          "name": "to",
          "type": "address"
        },
        {
          "internalType": "uint256",
          "name": "tokenId",
          "type": "uint256"
        }
      ],
      "name": "transferFrom",
      "outputs": [],
      "stateMutability": "nonpayable",
      "type": "function"
    },
    {
      "inputs": [
        {
          "internalType": "string",
          "name": "",
          "type": "string"
        }
      ],
      "name": "twitterLink",
      "outputs": [
        {
          "internalType": "string",
          "name": "",
          "type": "string"
        }
      ],
      "stateMutability": "view",
      "type": "function"
    },
    {
      "inputs": [
        {
          "internalType": "string",
          "name": "",
          "type": "string"
        }
      ],
      "name": "websiteLink",
      "outputs": [
        {
          "internalType": "string",
          "name": "",
          "type": "string"
        }
      ],
      "stateMutability": "view",
      "type": "function"
    }
  ],
  "bytecode": "0x61092060405261086b608081815290620033bf60a03980516200002b91600891602090910190620001a9565b5060408051808201909152600d8082526c1e17ba32bc3a1f1e17b9bb339f60991b60209092019182526200006291600991620001a9565b5060405162003c4c38038062003c4c833981016040819052620000859162000298565b604080518082018252600d81526c446f6d61696e5365727669636560981b602080830191825283518085019094526003845262454e5360e81b908401528151919291620000d591600091620001a9565b508051620000eb906001906020840190620001a9565b5050506200011d60405180606001604052806022815260200162003c2a602291396200013a60201b6200181d1760201c565b80516200013290600a906020840190620001a9565b5050620003c2565b620001858160405160240162000151919062000350565b60408051601f198184030181529190526020810180516001600160e01b0390811663104c13eb60e21b179091526200018816565b50565b80516a636f6e736f6c652e6c6f67602083016000808483855afa5050505050565b828054620001b79062000385565b90600052602060002090601f016020900481019282620001db576000855562000226565b82601f10620001f657805160ff191683800117855562000226565b8280016001018555821562000226579182015b828111156200022657825182559160200191906001019062000209565b506200023492915062000238565b5090565b5b8082111562000234576000815560010162000239565b634e487b7160e01b600052604160045260246000fd5b60005b838110156200028257818101518382015260200162000268565b8381111562000292576000848401525b50505050565b600060208284031215620002ab57600080fd5b81516001600160401b0380821115620002c357600080fd5b818401915084601f830112620002d857600080fd5b815181811115620002ed57620002ed6200024f565b604051601f8201601f19908116603f011681019083821181831017156200031857620003186200024f565b816040528281528760208487010111156200033257600080fd5b6200034583602083016020880162000265565b979650505050505050565b60208152600082518060208401526200037181604085016020870162000265565b601f01601f19169190910160400192915050565b600181811c908216806200039a57607f821691505b60208210811415620003bc57634e487b7160e01b600052602260045260246000fd5b50919050565b612fed80620003d26000396000f3fe6080604052600436106101b75760003560e01c806370a08231116100ec578063b88d4fde1161008a578063d16fc29411610064578063d16fc29414610519578063e985e9c514610539578063f2c298be14610582578063fe63212a1461059557600080fd5b8063b88d4fde146104b9578063bf40fac1146104d9578063c87b56dd146104f957600080fd5b806386e80b71116100c657806386e80b711461043157806395d89b411461046457806396dfab4414610479578063a22cb4651461049957600080fd5b806370a08231146103d1578063716421f8146103f157806373b77f761461041157600080fd5b80632d55143211610159578063524f388911610133578063524f3889146103435780636352211e1461037157806369637db8146103915780636981b5f4146103b157600080fd5b80632d551432146102ee578063380945061461030357806342842e0e1461032357600080fd5b8063095ea7b311610195578063095ea7b31461024b5780630d20a77c1461026d57806323b872dd1461028d57806326449235146102ad57600080fd5b806301ffc9a7146101bc57806306fdde03146101f1578063081812fc14610213575b600080fd5b3480156101c857600080fd5b506101dc6101d736600461245b565b6105b5565b60405190151581526020015b60405180910390f35b3480156101fd57600080fd5b50610206610607565b6040516101e891906124d0565b34801561021f57600080fd5b5061023361022e3660046124e3565b610699565b6040516001600160a01b0390911681526020016101e8565b34801561025757600080fd5b5061026b610266366004612518565b610726565b005b34801561027957600080fd5b5061026b6102883660046125ee565b61083c565b34801561029957600080fd5b5061026b6102a836600461272e565b610a18565b3480156102b957600080fd5b506102336102c836600461276a565b8051602081830181018051600b825292820191909301209152546001600160a01b031681565b3480156102fa57600080fd5b50610206610a49565b34801561030f57600080fd5b5061020661031e36600461276a565b610ad7565b34801561032f57600080fd5b5061026b61033e36600461272e565b610afb565b34801561034f57600080fd5b5061036361035e36600461279f565b610b16565b6040519081526020016101e8565b34801561037d57600080fd5b5061023361038c3660046124e3565b610ba3565b34801561039d57600080fd5b506102066103ac36600461276a565b610c1a565b3480156103bd57600080fd5b506103636103cc36600461276a565b610c3e565b3480156103dd57600080fd5b506103636103ec366004612811565b610c56565b3480156103fd57600080fd5b5061020661040c36600461276a565b610cdd565b34801561041d57600080fd5b5061020661042c36600461276a565b610d01565b34801561043d57600080fd5b5061045161044c36600461279f565b610d25565b6040516101e8979695949392919061282c565b34801561047057600080fd5b506102066111fe565b34801561048557600080fd5b5061020661049436600461276a565b61120d565b3480156104a557600080fd5b5061026b6104b43660046128c3565b611231565b3480156104c557600080fd5b5061026b6104d43660046128ff565b611240565b3480156104e557600080fd5b506102336104f436600461279f565b611278565b34801561050557600080fd5b506102066105143660046124e3565b6112ad565b34801561052557600080fd5b5061020661053436600461276a565b611424565b34801561054557600080fd5b506101dc61055436600461297b565b6001600160a01b03918216600090815260056020908152604080832093909416825291909152205460ff1690565b61026b61059036600461279f565b611448565b3480156105a157600080fd5b506102066105b036600461276a565b6117f9565b60006001600160e01b031982166380ac58cd60e01b14806105e657506001600160e01b03198216635b5e139f60e01b145b8061060157506301ffc9a760e01b6001600160e01b03198316145b92915050565b606060008054610616906129ae565b80601f0160208091040260200160405190810160405280929190818152602001828054610642906129ae565b801561068f5780601f106106645761010080835404028352916020019161068f565b820191906000526020600020905b81548152906001019060200180831161067257829003601f168201915b5050505050905090565b60006106a482611863565b61070a5760405162461bcd60e51b815260206004820152602c60248201527f4552433732313a20617070726f76656420717565727920666f72206e6f6e657860448201526b34b9ba32b73a103a37b5b2b760a11b60648201526084015b60405180910390fd5b506000908152600460205260409020546001600160a01b031690565b600061073182610ba3565b9050806001600160a01b0316836001600160a01b0316141561079f5760405162461bcd60e51b815260206004820152602160248201527f4552433732313a20617070726f76616c20746f2063757272656e74206f776e656044820152603960f91b6064820152608401610701565b336001600160a01b03821614806107bb57506107bb8133610554565b61082d5760405162461bcd60e51b815260206004820152603860248201527f4552433732313a20617070726f76652063616c6c6572206973206e6f74206f7760448201527f6e6572206e6f7220617070726f76656420666f7220616c6c00000000000000006064820152608401610701565b6108378383611880565b505050565b336001600160a01b0316600b8960405161085691906129e9565b908152604051908190036020019020546001600160a01b03161461087957600080fd5b86600c8960405161088a91906129e9565b908152602001604051809103902090805190602001906108ab9291906123ac565b5085600d896040516108bd91906129e9565b908152602001604051809103902090805190602001906108de9291906123ac565b5084600e896040516108f091906129e9565b908152602001604051809103902090805190602001906109119291906123ac565b5083600f8960405161092391906129e9565b908152602001604051809103902090805190602001906109449291906123ac565b508260108960405161095691906129e9565b908152602001604051809103902090805190602001906109779291906123ac565b508160118960405161098991906129e9565b908152602001604051809103902090805190602001906109aa9291906123ac565b50806012896040516109bc91906129e9565b908152602001604051809103902090805190602001906109dd9291906123ac565b50610a0e6040518060400160405280600e81526020016d095cc81c9958dbdc991cc81cd95d60921b815250896118ee565b5050505050505050565b610a223382611933565b610a3e5760405162461bcd60e51b815260040161070190612a05565b610837838383611a19565b600a8054610a56906129ae565b80601f0160208091040260200160405190810160405280929190818152602001828054610a82906129ae565b8015610acf5780601f10610aa457610100808354040283529160200191610acf565b820191906000526020600020905b815481529060010190602001808311610ab257829003601f168201915b505050505081565b805160208183018101805160118252928201919093012091528054610a56906129ae565b61083783838360405180602001604052806000815250611240565b60008083838080601f016020809104026020016040519081016040528093929190818152602001838380828437600092019190915250508251929350505080610b5e57600080fd5b8060031415610b785766038d7ea4c6800092505050610601565b8060041415610b925766038d7ea4c6800092505050610601565b5066038d7ea4c68000949350505050565b6000818152600260205260408120546001600160a01b0316806106015760405162461bcd60e51b815260206004820152602960248201527f4552433732313a206f776e657220717565727920666f72206e6f6e657869737460448201526832b73a103a37b5b2b760b91b6064820152608401610701565b8051602081830181018051600c8252928201919093012091528054610a56906129ae565b8051600090829080610c4f57600080fd5b9392505050565b60006001600160a01b038216610cc15760405162461bcd60e51b815260206004820152602a60248201527f4552433732313a2062616c616e636520717565727920666f7220746865207a65604482015269726f206164647265737360b01b6064820152608401610701565b506001600160a01b031660009081526003602052604090205490565b8051602081830181018051600e8252928201919093012091528054610a56906129ae565b805160208183018101805160128252928201919093012091528054610a56906129ae565b6060806060806060806060600c8989604051610d42929190612a56565b9081526020016040518091039020600d8a8a604051610d62929190612a56565b9081526020016040518091039020600e8b8b604051610d82929190612a56565b9081526020016040518091039020600f8c8c604051610da2929190612a56565b908152602001604051809103902060108d8d604051610dc2929190612a56565b908152602001604051809103902060118e8e604051610de2929190612a56565b908152602001604051809103902060128f8f604051610e02929190612a56565b9081526020016040518091039020868054610e1c906129ae565b80601f0160208091040260200160405190810160405280929190818152602001828054610e48906129ae565b8015610e955780601f10610e6a57610100808354040283529160200191610e95565b820191906000526020600020905b815481529060010190602001808311610e7857829003601f168201915b50505050509650858054610ea8906129ae565b80601f0160208091040260200160405190810160405280929190818152602001828054610ed4906129ae565b8015610f215780601f10610ef657610100808354040283529160200191610f21565b820191906000526020600020905b815481529060010190602001808311610f0457829003601f168201915b50505050509550848054610f34906129ae565b80601f0160208091040260200160405190810160405280929190818152602001828054610f60906129ae565b8015610fad5780601f10610f8257610100808354040283529160200191610fad565b820191906000526020600020905b815481529060010190602001808311610f9057829003601f168201915b50505050509450838054610fc0906129ae565b80601f0160208091040260200160405190810160405280929190818152602001828054610fec906129ae565b80156110395780601f1061100e57610100808354040283529160200191611039565b820191906000526020600020905b81548152906001019060200180831161101c57829003601f168201915b5050505050935082805461104c906129ae565b80601f0160208091040260200160405190810160405280929190818152602001828054611078906129ae565b80156110c55780601f1061109a576101008083540402835291602001916110c5565b820191906000526020600020905b8154815290600101906020018083116110a857829003601f168201915b505050505092508180546110d8906129ae565b80601f0160208091040260200160405190810160405280929190818152602001828054611104906129ae565b80156111515780601f1061112657610100808354040283529160200191611151565b820191906000526020600020905b81548152906001019060200180831161113457829003601f168201915b50505050509150808054611164906129ae565b80601f0160208091040260200160405190810160405280929190818152602001828054611190906129ae565b80156111dd5780601f106111b2576101008083540402835291602001916111dd565b820191906000526020600020905b8154815290600101906020018083116111c057829003601f168201915b50505050509050965096509650965096509650965092959891949750929550565b606060018054610616906129ae565b8051602081830181018051600d8252928201919093012091528054610a56906129ae565b61123c338383611bb5565b5050565b61124a3383611933565b6112665760405162461bcd60e51b815260040161070190612a05565b61127284848484611c84565b50505050565b6000600b838360405161128c929190612a56565b908152604051908190036020019020546001600160a01b0316905092915050565b60606112b882611863565b61131e5760405162461bcd60e51b815260206004820152603160248201527f45524337323155524953746f726167653a2055524920717565727920666f72206044820152703737b732bc34b9ba32b73a103a37b5b2b760791b6064820152608401610701565b60008281526006602052604081208054611337906129ae565b80601f0160208091040260200160405190810160405280929190818152602001828054611363906129ae565b80156113b05780601f10611385576101008083540402835291602001916113b0565b820191906000526020600020905b81548152906001019060200180831161139357829003601f168201915b5050505050905060006113ce60408051602081019091526000815290565b90508051600014156113e1575092915050565b8151156114135780826040516020016113fb929190612a66565b60405160208183030381529060405292505050919050565b61141c84611cb7565b949350505050565b8051602081830181018051600f8252928201919093012091528054610a56906129ae565b60006001600160a01b0316600b8383604051611465929190612a56565b908152604051908190036020019020546001600160a01b03161461148857600080fd5b60006114948383610b16565b90506114bf6040518060400160405280600681526020016509590b08095960d21b8152508234611d8e565b803410156115065760405162461bcd60e51b8152602060048201526014602482015273596f75206e65656420746f20706179206d6f726560601b6044820152606401610701565b60008383600a60405160200161151e93929190612b2f565b60405160208183030381529060405290506000600882600960405160200161154893929190612b58565b6040516020818303038152906040529050600061156460075490565b905060006115a787878080601f016020809104026020016040519081016040528093929190818152602001838380828437600092019190915250610c3e92505050565b905060006115b482611dd5565b9050611664604051806060016040528060318152602001612f0e6031913986600a80546115e0906129ae565b80601f016020809104026020016040519081016040528092919081815260200182805461160c906129ae565b80156116595780601f1061162e57610100808354040283529160200191611659565b820191906000526020600020905b81548152906001019060200180831161163c57829003601f168201915b505050505086611ed3565b600061169c898961167488611f1c565b856040516020016116889493929190612b8b565b604051602081830303815290604052611f1c565b90506000816040516020016116b19190612c7c565b60408051601f198184030181526060830190915260398083529092506116df9190612ed5602083013961181d565b61170f6040518060400160405280600e81526020016d46696e616c20746f6b656e55524960901b815250826118ee565b611730604051806060016040528060398152602001612f3f6039913961181d565b61173a3386612082565b611744858261209c565b33600b8b8b604051611757929190612a56565b908152604080516020928190038301812080546001600160a01b0319166001600160a01b0395909516949094179093558281018152600d83526c095cc81c9959da5cdd195c9959609a1b828401528051601f8d018390048302810183019091528b81526117df92918d908d90819084018382808284376000920191909152506118ee92505050565b6117ed600780546001019055565b50505050505050505050565b805160208183018101805160108252928201919093012091528054610a56906129ae565b6118608160405160240161183191906124d0565b60408051601f198184030181529190526020810180516001600160e01b031663104c13eb60e21b179052612127565b50565b6000908152600260205260409020546001600160a01b0316151590565b600081815260046020526040902080546001600160a01b0319166001600160a01b03841690811790915581906118b582610ba3565b6001600160a01b03167f8c5be1e5ebec7d5bd14f71427d1e84f3dd0314c0f7b2291e5b200ac8c7c3b92560405160405180910390a45050565b61123c8282604051602401611904929190612cc1565b60408051601f198184030181529190526020810180516001600160e01b0316634b5c427760e01b179052612127565b600061193e82611863565b61199f5760405162461bcd60e51b815260206004820152602c60248201527f4552433732313a206f70657261746f7220717565727920666f72206e6f6e657860448201526b34b9ba32b73a103a37b5b2b760a11b6064820152608401610701565b60006119aa83610ba3565b9050806001600160a01b0316846001600160a01b031614806119e55750836001600160a01b03166119da84610699565b6001600160a01b0316145b8061141c57506001600160a01b0380821660009081526005602090815260408083209388168352929052205460ff1661141c565b826001600160a01b0316611a2c82610ba3565b6001600160a01b031614611a905760405162461bcd60e51b815260206004820152602560248201527f4552433732313a207472616e736665722066726f6d20696e636f72726563742060448201526437bbb732b960d91b6064820152608401610701565b6001600160a01b038216611af25760405162461bcd60e51b8152602060048201526024808201527f4552433732313a207472616e7366657220746f20746865207a65726f206164646044820152637265737360e01b6064820152608401610701565b611afd600082611880565b6001600160a01b0383166000908152600360205260408120805460019290611b26908490612d05565b90915550506001600160a01b0382166000908152600360205260408120805460019290611b54908490612d1c565b909155505060008181526002602052604080822080546001600160a01b0319166001600160a01b0386811691821790925591518493918716917fddf252ad1be2c89b69c2b068fc378daa952ba7f163c4a11628f55a4df523b3ef91a4505050565b816001600160a01b0316836001600160a01b03161415611c175760405162461bcd60e51b815260206004820152601960248201527f4552433732313a20617070726f766520746f2063616c6c6572000000000000006044820152606401610701565b6001600160a01b03838116600081815260056020908152604080832094871680845294825291829020805460ff191686151590811790915591519182527f17307eab39ab6107e8899845ad3d59bd9653f200f220920489ca2b5937696c31910160405180910390a3505050565b611c8f848484611a19565b611c9b84848484612148565b6112725760405162461bcd60e51b815260040161070190612d34565b6060611cc282611863565b611d265760405162461bcd60e51b815260206004820152602f60248201527f4552433732314d657461646174613a2055524920717565727920666f72206e6f60448201526e3732bc34b9ba32b73a103a37b5b2b760891b6064820152608401610701565b6000611d3d60408051602081019091526000815290565b90506000815111611d5d5760405180602001604052806000815250610c4f565b80611d6784611dd5565b604051602001611d78929190612a66565b6040516020818303038152906040529392505050565b610837838383604051602401611da693929190612d86565b60408051601f198184030181529190526020810180516001600160e01b031663969cdd0360e01b179052612127565b606081611df95750506040805180820190915260018152600360fc1b602082015290565b8160005b8115611e235780611e0d81612dab565b9150611e1c9050600a83612ddc565b9150611dfd565b60008167ffffffffffffffff811115611e3e57611e3e612542565b6040519080825280601f01601f191660200182016040528015611e68576020820181803683370190505b5090505b841561141c57611e7d600183612d05565b9150611e8a600a86612df0565b611e95906030612d1c565b60f81b818381518110611eaa57611eaa612e04565b60200101906001600160f81b031916908160001a905350611ecc600a86612ddc565b9450611e6c565b61127284848484604051602401611eed9493929190612e1a565b60408051601f198184030181529190526020810180516001600160e01b0316639fd009f560e01b179052612127565b805160609080611f3c575050604080516020810190915260008152919050565b60006003611f4b836002612d1c565b611f559190612ddc565b611f60906004612e65565b90506000611f6f826020612d1c565b67ffffffffffffffff811115611f8757611f87612542565b6040519080825280601f01601f191660200182016040528015611fb1576020820181803683370190505b5090506000604051806060016040528060408152602001612f78604091399050600181016020830160005b8681101561203d576003818a01810151603f601282901c8116860151600c83901c8216870151600684901c831688015192909316870151600891821b60ff94851601821b92841692909201901b91160160e01b835260049092019101611fdc565b506003860660018114612057576002811461206857612074565b613d3d60f01b600119830152612074565b603d60f81b6000198301525b505050918152949350505050565b61123c828260405180602001604052806000815250612246565b6120a582611863565b6121085760405162461bcd60e51b815260206004820152602e60248201527f45524337323155524953746f726167653a2055524920736574206f66206e6f6e60448201526d32bc34b9ba32b73a103a37b5b2b760911b6064820152608401610701565b60008281526006602090815260409091208251610837928401906123ac565b80516a636f6e736f6c652e6c6f67602083016000808483855afa5050505050565b60006001600160a01b0384163b1561223b57604051630a85bd0160e11b81526001600160a01b0385169063150b7a029061218c903390899088908890600401612e84565b6020604051808303816000875af19250505080156121c7575060408051601f3d908101601f191682019092526121c491810190612eb7565b60015b612221573d8080156121f5576040519150601f19603f3d011682016040523d82523d6000602084013e6121fa565b606091505b5080516122195760405162461bcd60e51b815260040161070190612d34565b805181602001fd5b6001600160e01b031916630a85bd0160e11b14905061141c565b506001949350505050565b6122508383612279565b61225d6000848484612148565b6108375760405162461bcd60e51b815260040161070190612d34565b6001600160a01b0382166122cf5760405162461bcd60e51b815260206004820181905260248201527f4552433732313a206d696e7420746f20746865207a65726f20616464726573736044820152606401610701565b6122d881611863565b156123255760405162461bcd60e51b815260206004820152601c60248201527f4552433732313a20746f6b656e20616c7265616479206d696e746564000000006044820152606401610701565b6001600160a01b038216600090815260036020526040812080546001929061234e908490612d1c565b909155505060008181526002602052604080822080546001600160a01b0319166001600160a01b03861690811790915590518392907fddf252ad1be2c89b69c2b068fc378daa952ba7f163c4a11628f55a4df523b3ef908290a45050565b8280546123b8906129ae565b90600052602060002090601f0160209004810192826123da5760008555612420565b82601f106123f357805160ff1916838001178555612420565b82800160010185558215612420579182015b82811115612420578251825591602001919060010190612405565b5061242c929150612430565b5090565b5b8082111561242c5760008155600101612431565b6001600160e01b03198116811461186057600080fd5b60006020828403121561246d57600080fd5b8135610c4f81612445565b60005b8381101561249357818101518382015260200161247b565b838111156112725750506000910152565b600081518084526124bc816020860160208601612478565b601f01601f19169290920160200192915050565b602081526000610c4f60208301846124a4565b6000602082840312156124f557600080fd5b5035919050565b80356001600160a01b038116811461251357600080fd5b919050565b6000806040838503121561252b57600080fd5b612534836124fc565b946020939093013593505050565b634e487b7160e01b600052604160045260246000fd5b600067ffffffffffffffff8084111561257357612573612542565b604051601f8501601f19908116603f0116810190828211818310171561259b5761259b612542565b816040528093508581528686860111156125b457600080fd5b858560208301376000602087830101525050509392505050565b600082601f8301126125df57600080fd5b610c4f83833560208501612558565b600080600080600080600080610100898b03121561260b57600080fd5b883567ffffffffffffffff8082111561262357600080fd5b61262f8c838d016125ce565b995060208b013591508082111561264557600080fd5b6126518c838d016125ce565b985060408b013591508082111561266757600080fd5b6126738c838d016125ce565b975060608b013591508082111561268957600080fd5b6126958c838d016125ce565b965060808b01359150808211156126ab57600080fd5b6126b78c838d016125ce565b955060a08b01359150808211156126cd57600080fd5b6126d98c838d016125ce565b945060c08b01359150808211156126ef57600080fd5b6126fb8c838d016125ce565b935060e08b013591508082111561271157600080fd5b5061271e8b828c016125ce565b9150509295985092959890939650565b60008060006060848603121561274357600080fd5b61274c846124fc565b925061275a602085016124fc565b9150604084013590509250925092565b60006020828403121561277c57600080fd5b813567ffffffffffffffff81111561279357600080fd5b61141c848285016125ce565b600080602083850312156127b257600080fd5b823567ffffffffffffffff808211156127ca57600080fd5b818501915085601f8301126127de57600080fd5b8135818111156127ed57600080fd5b8660208285010111156127ff57600080fd5b60209290920196919550909350505050565b60006020828403121561282357600080fd5b610c4f826124fc565b60e08152600061283f60e083018a6124a4565b8281036020840152612851818a6124a4565b9050828103604084015261286581896124a4565b9050828103606084015261287981886124a4565b9050828103608084015261288d81876124a4565b905082810360a08401526128a181866124a4565b905082810360c08401526128b581856124a4565b9a9950505050505050505050565b600080604083850312156128d657600080fd5b6128df836124fc565b9150602083013580151581146128f457600080fd5b809150509250929050565b6000806000806080858703121561291557600080fd5b61291e856124fc565b935061292c602086016124fc565b925060408501359150606085013567ffffffffffffffff81111561294f57600080fd5b8501601f8101871361296057600080fd5b61296f87823560208401612558565b91505092959194509250565b6000806040838503121561298e57600080fd5b612997836124fc565b91506129a5602084016124fc565b90509250929050565b600181811c908216806129c257607f821691505b602082108114156129e357634e487b7160e01b600052602260045260246000fd5b50919050565b600082516129fb818460208701612478565b9190910192915050565b60208082526031908201527f4552433732313a207472616e736665722063616c6c6572206973206e6f74206f6040820152701ddb995c881b9bdc88185c1c1c9bdd9959607a1b606082015260800190565b8183823760009101908152919050565b60008351612a78818460208801612478565b835190830190612a8c818360208801612478565b01949350505050565b8054600090600181811c9080831680612aaf57607f831692505b6020808410821415612ad157634e487b7160e01b600052602260045260246000fd5b818015612ae55760018114612af657612b23565b60ff19861689528489019650612b23565b60008881526020902060005b86811015612b1b5781548b820152908501908301612b02565b505084890196505b50505050505092915050565b82848237601760f91b818401908152600090612b4e6001820185612a95565b9695505050505050565b6000612b648286612a95565b8451612b74818360208901612478565b612b8081830186612a95565b979650505050505050565b693d913730b6b2911d101160b11b81528385600a8301376000848201600a8101600081527f222c20226465736372697074696f6e223a20224120646f6d61696e206f6e20748152507f6865204e696e6a61206e616d652073657276696365222c2022696d616765223a602a8201527f2022646174613a696d6167652f7376672b786d6c3b6261736536342c00000000604a8201528451612c32816066840160208901612478565b6b1116113632b733ba34111d1160a11b606692909101918201528351612c5f816072840160208801612478565b61227d60f01b607292909101918201526074019695505050505050565b7f646174613a6170706c69636174696f6e2f6a736f6e3b6261736536342c000000815260008251612cb481601d850160208701612478565b91909101601d0192915050565b604081526000612cd460408301856124a4565b8281036020840152612ce681856124a4565b95945050505050565b634e487b7160e01b600052601160045260246000fd5b600082821015612d1757612d17612cef565b500390565b60008219821115612d2f57612d2f612cef565b500190565b60208082526032908201527f4552433732313a207472616e7366657220746f206e6f6e20455243373231526560408201527131b2b4bb32b91034b6b83632b6b2b73a32b960711b606082015260800190565b606081526000612d9960608301866124a4565b60208301949094525060400152919050565b6000600019821415612dbf57612dbf612cef565b5060010190565b634e487b7160e01b600052601260045260246000fd5b600082612deb57612deb612dc6565b500490565b600082612dff57612dff612dc6565b500690565b634e487b7160e01b600052603260045260246000fd5b608081526000612e2d60808301876124a4565b8281036020840152612e3f81876124a4565b90508281036040840152612e5381866124a4565b91505082606083015295945050505050565b6000816000190483118215151615612e7f57612e7f612cef565b500290565b6001600160a01b0385811682528416602082015260408101839052608060608201819052600090612b4e908301846124a4565b600060208284031215612ec957600080fd5b8151610c4f8161244556fe0a2d2d2d2d2d2d2d2d2d2d2d2d2d2d2d2d2d2d2d2d2d2d2d2d2d2d2d2d2d2d2d2d2d2d2d2d2d2d2d2d2d2d2d2d2d2d2d2d2d2d2d2d2d2d2d2d5265676973746572696e672025732e2573206f6e2074686520636f6e7472616374207769746820746f6b656e49442025642d2d2d2d2d2d2d2d2d2d2d2d2d2d2d2d2d2d2d2d2d2d2d2d2d2d2d2d2d2d2d2d2d2d2d2d2d2d2d2d2d2d2d2d2d2d2d2d2d2d2d2d2d2d2d2d0a4142434445464748494a4b4c4d4e4f505152535455565758595a6162636465666768696a6b6c6d6e6f707172737475767778797a303132333435363738392b2fa2646970667358221220f9224db5fa0a17e1f7d45a9e9b3cb860333bc5f910b2d4939976fcfc3fe1c7e164736f6c634300080a00333c73766720786d6c6e733d22687474703a2f2f7777772e77332e6f72672f323030302f737667222077696474683d2232373022206865696768743d22323730222066696c6c3d226e6f6e65223e3c706174682066696c6c3d2275726c282342292220643d224d302030683237307632373048307a222f3e3c646566733e3c66696c7465722069643d22412220636f6c6f722d696e746572706f6c6174696f6e2d66696c746572733d2273524742222066696c746572556e6974733d227573657253706163654f6e55736522206865696768743d22323730222077696474683d22323730223e3c666544726f70536861646f772064783d2230222064793d22312220737464446576696174696f6e3d22322220666c6f6f642d6f7061636974793d222e323235222077696474683d223230302522206865696768743d2232303025222f3e3c2f66696c7465723e3c2f646566733e3c7061746820643d224d37322e3836332034322e393439632d2e3636382d2e3338372d312e3432362d2e35392d322e3139372d2e3539732d312e3532392e3230342d322e3139372e35396c2d31302e30383120362e3033322d362e383520332e3933342d31302e30383120362e303332632d2e3636382e3338372d312e3432362e35392d322e3139372e3539732d312e3532392d2e3230342d322e3139372d2e35396c2d382e3031332d342e37323161342e353220342e35322030203020312d312e3538392d312e363136632d2e3338342d2e3636352d2e3539342d312e3431382d2e3630382d322e313837762d392e3331632d2e3031332d2e3737352e3138352d312e3533382e3537322d322e32303861342e323520342e323520302030203120312e3632352d312e3539356c372e3838342d342e3539632e3636382d2e33383720312e3432362d2e353920322e3139372d2e353973312e3532392e32303420322e3139372e35396c372e38383420342e353961342e353220342e353220302030203120312e35383920312e363136632e3338342e3636352e35393420312e3431382e36303820322e31383776362e3033326c362e38352d342e303635762d362e303332632e3031332d2e3737352d2e3138352d312e3533382d2e3537322d322e32303861342e323520342e32352030203020302d312e3632352d312e3539354c34312e3435362032342e3539632d2e3636382d2e3338372d312e3432362d2e35392d322e3139372d2e3539732d312e3532392e3230342d322e3139372e35396c2d31342e38363420382e36353561342e323520342e32352030203020302d312e36323520312e353935632d2e3338372e36372d2e35383520312e3433342d2e35373220322e3230387631372e343431632d2e3031332e3737352e31383520312e3533382e35373220322e32303861342e323520342e323520302030203020312e36323520312e3539356c31342e38363420382e363535632e3636382e33383720312e3432362e353920322e3139372e353973312e3532392d2e32303420322e3139372d2e35396c31302e3038312d352e39303120362e38352d342e3036352031302e3038312d352e393031632e3636382d2e33383720312e3432362d2e353920322e3139372d2e353973312e3532392e32303420322e3139372e35396c372e38383420342e353961342e353220342e353220302030203120312e35383920312e363136632e3338342e3636352e35393420312e3431382e36303820322e31383776392e333131632e3031332e3737352d2e31383520312e3533382d2e35373220322e32303861342e323520342e32352030203020312d312e36323520312e3539356c2d372e38383420342e373231632d2e3636382e3338372d312e3432362e35392d322e3139372e3539732d312e3532392d2e3230342d322e3139372d2e35396c2d372e3838342d342e353961342e353220342e35322030203020312d312e3538392d312e363136632d2e3338352d2e3636352d2e3539342d312e3431382d2e3630382d322e313837762d362e3033326c2d362e383520342e30363576362e303332632d2e3031332e3737352e31383520312e3533382e35373220322e32303861342e323520342e323520302030203020312e36323520312e3539356c31342e38363420382e363535632e3636382e33383720312e3432362e353920322e3139372e353973312e3532392d2e32303420322e3139372d2e35396c31342e3836342d382e363535632e3635372d2e33393420312e3230342d2e393520312e3538392d312e363136732e3539342d312e3431382e3630392d322e3138375635352e353338632e3031332d2e3737352d2e3138352d312e3533382d2e3537322d322e32303861342e323520342e32352030203020302d312e3632352d312e3539356c2d31342e3939332d382e3738367a222066696c6c3d2223666666222f3e3c646566733e3c6c696e6561724772616469656e742069643d2242222078313d2230222079313d2230222078323d22323730222079323d2232373022206772616469656e74556e6974733d227573657253706163654f6e557365223e3c73746f702073746f702d636f6c6f723d2223636235656565222f3e3c73746f70206f66667365743d2231222073746f702d636f6c6f723d2223306364376534222073746f702d6f7061636974793d222e3939222f3e3c2f6c696e6561724772616469656e743e3c2f646566733e3c7465787420783d2233322e352220793d223233312220666f6e742d73697a653d223237222066696c6c3d2223666666222066696c7465723d2275726c282341292220666f6e742d66616d696c793d22506c7573204a616b617274612053616e732c44656a6156752053616e732c4e6f746f20436f6c6f7220456d6f6a692c4170706c6520436f6c6f7220456d6f6a692c73616e732d73657269662220666f6e742d7765696768743d22626f6c64223e54484953204953204d5920444f4d41494e5320434f4e54524143542e204e4943452e",
  "linkReferences": {},
  "deployedLinkReferences": {}
}